:020000040800F2
:10000000A01A0020ED0F0008E1010008E30100083C
:10001000E7010008EB010008EF0100080000000004
:10002000000000000000000000000000F3010008D4
:10003000F50100080000000027120008F90100087F
:100040000710000807100008071000080710000834
:100050000710000807100008071000080710000824
:100060000710000807100008071000080710000814
:100070000710000807100008071000080710000804
:1000800007100008071000080710000807100008F4
:100090001B020008071000080710000821020008D2
:1000A0002502000827020008290200082B02000888
:1000B000071000082D020008071000082F02000892
:1000C0003102000833020008350200083702000838
:1000D000071000081D0200081F0200080710000892
:1000E000230200080710000807100008DFF80CD0F2
:1000F00003F072FA0048004799010008A01A002096
:1001000006E04FF4FA7300221146104603F03EF861
:10011000F7E706E04FF4FA7300221146104603F0A9
:1001200035F8F7E701251BE005F00300002103F097
:10013000EDF8002409E005F00300A04203D00121FE
:10014000204603F0E3F8601CC4B2042CF3DB681C07
:10015000C5B24FF4967301220021084603F016F849
:10016000E2E703F000FA01F001FE0523144A002142
:10017000144802F0BBFC0623134A0021134802F086
:10018000B5FC0723124A0021124802F0AFFC02E03E
:10019000FF2002F048FFFBE710B501F0E9FC032364
:1001A0000D4A00210D4802F0A1FC01F0C7FD00201E
:1001B00010BD704770477047704770477047704771
:1001C00068040020250100086806002013010008CB
:1001D000680800200101000868020020630100088F
:1001E000704700BFFEE700BFFEE700BFFEE700BFAD
:1001F000FEE770477047704710B500F0F3FF044604
:100200000D480078401C0C490870204600F0EEFFB5
:1002100001F0CBFD01F0D0FC10BD70477047704776
:100220007047704770477047704770477047704716
:1002300070477047704770474100002031490143C3
:10024000314A1160704770B5002100230F22C47835
:1002500004B32D4C246804F4E064C4F5E064210A7E
:10026000C1F10403CA40447804FA03F184781440CD
:1002700021430901254C0678A155047804F01F0597
:100280000124AC4005786D11AD0005F1E025C5F8FD
:10029000004109E0047804F01F050124AC401C4D26
:1002A0000678761145F8264070BD1A4A0A40024386
:1002B000154B1B1F1A60704739B1134A121D126883
:1002C0000243114B1B1D1A6006E00F4A121D1268F3
:1002D00082430D4B1B1D1A607047042808D14FF054
:1002E000E021096941F004014FF0E022116107E0CB
:1002F0004FF0E021096921F004014FF0E022116183
:10030000704700000000FA050CED00E000E400E09A
:1003100080E100E080FFFF1F01460020FE4A1068D8
:1003200000F03800084310607047FB49096821F06D
:100330000801F94A116011460968014311607047CC
:10034000F549096821F01001F34A11601146096866
:10035000014311607047F148EF494860F048486038
:100360007047EE48EC494860ED4848607047EA48FD
:10037000006940F08000E84908617047E64800697C
:1003800040F08000E449086170470420E249C968F0
:1003900001F0010109B101200EE0DF49C96801F057
:1003A000040109B1022007E0DB49C96801F010012E
:1003B00009B1032000E00420704700B50246042381
:1003C000FFF7E3FF034603E0FFF7DFFF0346521E9C
:1003D000012B01D1002AF7D102B90523184600BD2F
:1003E00030B5054604244FF43020FFF7E6FF0446FD
:1003F000042C19D1C848006940F00200C6490861C0
:1004000008464561006940F0400008614FF4302023
:10041000FFF7D3FF0446052C06D0BF48006941F61C
:10042000FD710840BC490861204630BD10B5042468
:100430004FF43020FFF7C1FF0446042C18D1B64812
:10044000006940F00400B44908610846006940F0C2
:10045000400008614FF43020FFF7AFFF0446052C41
:1004600006D0AD48006941F6FB710840AA49086111
:10047000204610BD00B502460423FFF786FF034661
:1004800003E0FFF782FF0346521E012B01D1002A31
:10049000F7D102B90523184600BD10B504244FF466
:1004A0003020FFF7E7FF0446042C18D19A48006972
:1004B00040F00400984908610846006940F0400097
:1004C00008614FF43020FFF7D5FF0446052C06D015
:1004D0009148006941F6FB7108408F490861204648
:1004E00010BD00208C49C96901F0020109B1012049
:1004F00000E00020704730B5A5250424FFF7F1FF88
:1005000000B100254FF43020FFF757FF0446042CBC
:100510003AD18248804988608148886008460069ED
:1005200040F0200008610846006940F04000086182
:100530004FF43020FFF741FF0446042C1BD17648CE
:10054000006941F6DF710840734908610846006997
:1005500040F01000086173480580E002FFF72DFFAE
:100560000446052C10D06C48006941F6EF71084034
:100570006949086108E0052C06D06748006941F622
:10058000EF71084064490861204630BD78B50646E1
:100590000D46042400200090E002FFF70EFF044601
:1005A000042C28D15C48006940F001005A490861D8
:1005B0003580E002FFF701FF0446042C12D1B01C85
:1005C0000090280C00990880E002FFF7F6FE044630
:1005D000052C10D05048006941F6FE7108404E4984
:1005E000086108E0052C06D04B48006941F6FE7111
:1005F000084049490861204678BD70B505460E4659
:100600000424E002FFF7D9FE0446042C13D142482B
:10061000006940F00100404908612E80E002FFF7C8
:10062000CCFE0446052C06D03B48006941F6FE711D
:10063000084039490861204670BD70B505460E4630
:100640000424E002FFF7B9FE0446042C17D1334816
:1006500031498860324888600846006940F01000DF
:1006600008612E80E002FFF7A8FE0446052C06D0A4
:100670002948006941F6EF71084027490861204682
:1006800070BD2DE9F04304464FF6FF763746B0467D
:10069000B1460425E443E6B2C4F30727C4F3074890
:1006A0004FEA1469E802FFF788FE0546042D4AD197
:1006B0001A48194988601A4888600846006940F05D
:1006C00010000861FF2E06D0164808300680E802A8
:1006D000FFF773FE0546042D08D1FF2F06D0114801
:1006E0000A300780E802FFF768FE0546042D0AD1AC
:1006F000B8F1FF0F07D00B480C30A0F80080E802DB
:10070000FFF75BFE0546042D14D1B9F1FF0F11D0A0
:1007100004480E3008E00000002002402301674535
:10072000AB89EFCD00F8FF1FA0F80090E802FFF7BB
:1007300044FE0546052D06D06848006941F6EF7174
:100740000840664908612846BDE8F08330B5054693
:1007500004244FF43020FFF730FE0446042C41D12E
:100760005F485E4988605F4888600846006940F0DD
:10077000200008610846006940F0400008614FF41D
:100780003020FFF71AFE0446042C22D1534800699A
:1007900041F6DF710840514908610846006940F0A0
:1007A000100008611DB100204F49088002E0A5201B
:1007B0004D4908804FF43020FFF7FFFD0446052C1B
:1007C00010D04648006941F6EF710840434908617E
:1007D00008E0052C06D04148006941F6DF71084069
:1007E0003E490861204630BDF0B505460E46174625
:1007F00004243B48394988603A488860E002FFF7A2
:10080000DCFD0446042C19D13448006940F0100086
:100810003249086147F0F800304328433249891CC7
:100820000880E002FFF7C9FD0446052C06D02B48DE
:10083000006941F6EF710840284908612046F0BD83
:100840002648C069800870472448006A7047002025
:100850002249096801F0200109B1012000E00020CF
:10086000704729B11D4A126902431C4B1A6104E00A
:100870001A4A12698243194B1A61704701460020D7
:10088000012908D1154AD26902F001020AB10120FA
:1008900008E0002006E0114AD2680A400AB10120AF
:1008A00000E0002070470D49C860704704200B49E4
:1008B000C96801F0010109B101200EE00749C968CA
:1008C00001F0040109B1022007E00449C96801F000
:1008D000100109B1032000E004207047002002400D
:1008E00023016745AB89EFCD00F8FF1F10B5044623
:1008F000CC48844208D10121042000F02DFB0021C6
:10090000042000F029FB46E0C748844208D10121B9
:10091000082000F021FB0021082000F01DFB3AE038
:10092000C248844208D10121102000F015FB0021AB
:10093000102000F011FB2EE0BD48844208D10121B7
:10094000202000F009FB0021202000F005FB22E020
:10095000B848844208D10121402000F0FDFA00216E
:10096000402000F0F9FA16E0B348844208D1012192
:10097000802000F0F1FA0021802000F0EDFA0AE07A
:10098000AE48844207D10121801500F0E5FA00212C
:10099000A01500F0E1FA10BD10B50121084600F0E5
:1009A000DBFA0021012000F0D7FA10BD2DE9F0415B
:1009B000024600250026002000230024002791F88D
:1009C00003C00CF00F0591F803C00CF0100CBCF143
:1009D000000F03D091F802C04CEA050591F800C061
:1009E000BCF1000F31D0146800202BE04FF0010C57
:1009F0000CFA00F3B1F800C00CEA03069E4220D1C5
:100A000083004FF00F0C0CFA03F7BC4305FA03FC0C
:100A10004CEA040491F803C0BCF1280F06D14FF052
:100A2000010C0CFA00FCC2F814C00AE091F803C0F3
:100A3000BCF1480F05D14FF0010C0CFA00FCC2F8D4
:100A400010C0401C0828D1D31460B1F800C0BCF11C
:100A5000FF0F34DD546800202EE000F1080C4FF049
:100A6000010808FA0CF3B1F800C00CEA03069E4234
:100A700021D183004FF00F0C0CFA03F7BC4305FAA9
:100A800003FC4CEA040491F803C0BCF1280F05D123
:100A900000F1080C08FA0CF8C2F8148091F803C0B1
:100AA000BCF1480F07D100F1080C4FF0010808FA1B
:100AB0000CF8C2F81080401C0828CED35460BDE862
:100AC000F0814FF6FF710180022181700421C17015
:100AD00070470246002093680B400BB1012000E0F4
:100AE000002070470146886880B2704702460020A7
:100AF000D3680B400BB1012000E000207047014695
:100B0000C86880B2704701617047416170470AB19F
:100B1000016100E041617047C16070474FF480326D
:100B20000A438261816182618269826970470246FB
:100B30000020434B18684FF68073184040EA0210BB
:100B400008433F4B186070473E49C8617047F0B595
:100B50000A46002300240021002500F00046B6F1DB
:100B6000004F02D1364EF16901E0354E7168C0F395
:100B7000034583B200F44016B6F5401F08D121F0BA
:100B800070612F4E766826F070662D4F7E6012E001
:100B900000F48016B6F5801F06D1032606FA05F488
:100BA000A14341F0706106E0460D360103FA06F6F6
:100BB000B14341F0706122B1460D360103FA06F6E9
:100BC000314300F00046B6F1004F02D11C4EF161F6
:100BD00001E01B4E7160F0BD30B500228B071C0F89
:100BE0000F2303FA04F2164B08338C1053F8243009
:100BF0009343134C08348D1044F8253023468C1051
:100C000053F824308C07240F00FA04F423430C4CCF
:100C100008348D1044F8253030BD0A49DC310860B5
:100C20007047000000080140000C01400010014026
:100C30000014014000180140001C01400020014048
:100C40000000014000002042DF48006840F0010041
:100C5000DD49086008464068DC490840DA494860D8
:100C600008460068DA490840D74908600846006825
:100C700020F4802008600846406820F4FE004860A8
:100C80004FF41F0088607047CF49096821F4803114
:100C9000CD4A11601146096821F480211160B0F538
:100CA000803F03D0B0F5802F0ED106E0C649096819
:100CB00041F48031C44A116007E0C349096841F436
:100CC000A021C14A116000E000BF00BF704710B50D
:100CD00001460022002300204A11012A02D1BA4C09
:100CE000236806E0022A02D1B74C236A01E0B64C21
:100CF000636A01F01F02012494401C400CB10120E2
:100D000000E0002010BD38B5002000900024002530
:100D100000BF3120FFF7DBFF05460098401C009024
:100D20000098B0F5A06F01D0002DF2D03120FFF770
:100D3000CEFF08B1012400E00024204638BD014662
:100D40000020A14A106820F0F80040EAC1001060BD
:100D50007047A04908607047024600209A4B5868C7
:100D600020F47C1042EA01031843974B5860704707
:100D700098490866704701460020934A506820F061
:100D800003000843506070478F48406800F00C0033
:100D90007047014600208C4A506820F0F00008435C
:100DA0005060704701460020874A506820F4E06098
:100DB00008435060704701460020834A506820F481
:100DC000605040EAC1005060704729B17E4A527AB3
:100DD00002437D4B5A7204E07B4A527A82437A4B3B
:100DE0005A7270477B49D83108607047014600202D
:100DF000754A506820F44040084350607047002115
:100E0000714A20321170704A82F82010012802D0F5
:100E100004280AD104E001216B4A2032117005E058
:100E20000521694A2032117000E000BF00BF704701
:100E30006949086070476449096A0143624A11625E
:100E40007047654944390860704730B50021002279
:100E5000002400235C4D6D6805F00C0121B10429CC
:100E600005D0082923D105E05C4D056022E05B4DEB
:100E700005601FE0544D6D6805F47012524D6D68A9
:100E800005F48034022505EB92421CB9544D5543BC
:100E900005600BE04C4D6D6805F400351DB1504DFB
:100EA0005543056002E04D4D5543056002E04B4D52
:100EB000056000BF00BF444D6D6805F0F0010909F1
:100EC000484D6B5C0568DD4045603F4D6D6805F43D
:100ED000E061090A434D6B5C4568DD4085603A4D31
:100EE0006D6805F46051C90A3E4D6B5C4568DD4094
:100EF000C560354D6D6805F44041890B3A4D6B5C1A
:100F0000C568B5FBF3F5056130BD29B12E4A5269BC
:100F100002432D4B5A6104E02B4A526982432A4B0B
:100F20005A61704729B1284A92690243264B9A6157
:100F300004E0254A92698243234B9A61704729B1A4
:100F4000214AD2690243204BDA6104E01E4AD26989
:100F500082431D4BDA61704729B11B4AD2680243B4
:100F6000194BDA6004E0184AD2688243164BDA6003
:100F7000704729B1144A12690243134B1A6104E005
:100F8000114A12698243104B1A6170471249403965
:100F9000086070470F49C86470470B49C8717047B3
:100FA0000948406A40F0807007494862704701462E
:100FB0000020054A92680A400AB1012000E00020A2
:100FC0007047014988727047001002400000FFF826
:100FD000FFFFF6FE000042428004424200127A0007
:100FE00000093D0000000020100000200648804756
:100FF00006480047FEE7FEE7FEE7FEE7FEE7FEE7FE
:10100000FEE7FEE7FEE7FEE7EF100008ED00000850
:101010000CB50020019000906A48006840F48030D0
:101020006849086000BF6748006800F4003000901D
:101030000198401C0190009818B90198B0F5A06F74
:10104000F1D16048006800F4003010B10120009038
:1010500001E0002000900098012843D15A48006820
:1010600040F01000584908600846006820F003006E
:1010700008600846006840F0020008605148406877
:10108000504948600846406848600846406840F457
:10109000806048600846406820F47C10486008463C
:1010A000406840F4E81048600846006840F08070EE
:1010B000086000BF4348006800F000700028F9D0C5
:1010C0004048406820F003003E49486008464068B8
:1010D00040F00200486000BF3A48406800F00C0051
:1010E0000828F9D10CBD10B5FFF792FF10BD10B55F
:1010F0003448006840F00100324908600846406802
:10110000324908402F494860084600683049084085
:101110002C4908600846006820F4802008600846D2
:10112000406820F4FE0048604FF41F008860FFF71D
:10113000DAFF10BD10B5002100200022214B5B68B2
:1011400003F00C0121B1042906D0082928D107E0B9
:10115000204B214C236027E01E4B1F4C236023E0D3
:10116000184B5B6803F47010164B5B6803F4803215
:10117000022303EB904022B9184B4343164C2360E3
:101180000DE0104B5B6803F4003323B1134B434372
:10119000114C236003E00F4B43430F4C236003E0EB
:1011A0000C4B0D4C236000BF00BF064B5B68C3F3C4
:1011B00003130B4CE15C084B1B68CB40064C2360CF
:1011C00010BD000000100240002002400000FFF8A7
:1011D000FFFFF6FE00127A001400002000093D0017
:1011E00018000020EFF3108072B6704780F310886B
:1011F00070471D484FF0FF010170002080F30988FF
:101200001A48012101701A484FF08051016062B6FE
:10121000FEE717484FF080510160704714484FF0C7
:1012200080510160704772B6EFF3098028B1203811
:1012300080E8F00F0F490968086000B50E48804744
:101240005DF804EB0D480E490A78027009480D4913
:101250000A680260106890E8F00F203080F3098877
:101260004EF0040E62B6704722ED00E04A00002006
:1012700004ED00E0500000204F1300084300002060
:1012800044000020580000207047704710B5044605
:101290002046FEF78EFF10BD10B504462046FEF72F
:1012A00089FF10BD10B5FEF786FF10BD10B5FEF723
:1012B00083FF10BD70B5044610464FF08075056081
:1012C000051F28462C606FF00106051F28462E607A
:1012D0004FF01236051F28462E604FF00336051FCB
:1012E00028462E604FF00236051F28462E607610E5
:1012F000051F28462E60051F284629604FF011362D
:10130000051F28462E604FF01036051F28462E6018
:101310004FF00936051F28462E604FF00836051F8E
:1013200028462E604FF00736051F28462E604FF0E6
:101330000636051F28462E604FF00536051F284645
:101340002E604FF00436051F28462E6070BD10B584
:10135000FEF733FF10BD10B504462046FEF72EFF02
:1013600010BD10B5FEF72BFF10BD00001748184840
:101370001848194819481A481A481B481B481C485D
:101380001C481D481D481E481E481F481F4820482D
:1013900020482148214822482248234823482448FD
:1013A00024482548254826482648274827482848CD
:1013B0002848294829482A482A482B482B482C489D
:1013C0002C482D482D4800BF704700001C360008EF
:1013D0002036000824360008263600082836000883
:1013E0002A3600082C3600082E3600083036000851
:1013F0003236000834360008363600083836000821
:101400003A3600083C3600083E36000840360008F0
:1014100042360008443600084636000848360008C0
:101420004A3600084C3600084E3600085036000890
:101430005236000854360008563600085836000860
:101440005A3600085C3600085E3600086036000830
:101450006236000864360008663600086836000800
:101460006A3600086C3600086E36000870360008D0
:1014700072360008743600087636000878360008A0
:101480000246002005E011F8013B02F8013B431C35
:10149000D8B20B78002BF6D1137070472DE9F041CC
:1014A00005460E4614460027FC480078002804DD57
:1014B000112020700020BDE8F0812878012808D094
:1014C000022807D0032802D0042804D100E000BF7E
:1014D00000BF00BF03E0012020700020EBE700BF49
:1014E000FFF780FE074605F10F013046FFF7C8FF02
:1014F00080463846FFF77AFE002020704046DAE743
:101500000146002002E0491C421CD0B20A78002AA1
:10151000F9D170472DE9F04105460F4614464FF0CA
:101520000008DE480078002803DD12202070BDE8A6
:10153000F0812878012808D0022807D0032802D09B
:10154000042804D100E000BF00BF00BF02E001207A
:101550002070ECE700BFFFF745FE80463846FFF7F6
:10156000CFFF06460F2E05DD4046FFF73FFE0B205E
:101570002070DCE7394605F10F00FFF781FF404698
:10158000FFF734FE0020207000BFD0E7F0B5024620
:1015900012F8344F95785678343A0B4618680FE0B5
:1015A00000F10B073F5DB74300F10B0C0CF8047022
:1015B00067463F5D17B9877AAF4387721B1D18686E
:1015C0000028EDD1F0BDB649B64A1278885CB6491C
:1015D000095CB34A515C01EBC001B44A1170704719
:1015E00010B50024FFF7FEFD0446AC480078F0B9C2
:1015F000AF480078D8B9FFF7E6FFAC480078AD49AE
:101600000978884213D0AC48A849097850F82100DD
:10161000AA49086008460068806B401C0968886316
:10162000A7480068401CA6490860FFF7F2FD204665
:10163000FFF7DCFD10BD70B501460024A14D2D68FB
:10164000EC61A04C246821620B4618681BE09D4C9D
:10165000246894F8345000F10B04645D994D2D68B2
:1016600095F835502C43974D2D6895F8346000F16E
:101670000B05AC55847A934D2D6895F836502C4364
:1016800084721B1D18680028E1D18E4C246894F8E0
:101690003420854CA45C8B4D2D6895F83550AC43B7
:1016A000814DAC542C46A45C44B9864C246894F813
:1016B00036507C4C2478AC437A4D2C7070BD2DE9AB
:1016C000FF4F83B080460E461546109F00200190C4
:1016D0003060C146D9F8004018E02078012807D0D2
:1016E000032804D0042805D0052802D103E008E02F
:1016F00007E000BF00BF01203870002007B0BDE840
:10170000F08F00BF09F10409D9F80040002CE4D1A2
:1017100062480078002803DD022038700020EDE7E1
:1017200063480078002803DD0D2038700020E5E7CD
:10173000FFF758FD01900020029082468346C14683
:10174000D9F800403DE02078012819D0032804D0C2
:10175000042827D0052824D125E0208900280CDD85
:101760002089401E208110C601200290002001C562
:101770000AF101001FFA80FA01E04BF0010B1BE0B7
:10178000606858B1606801C50020606010C6012023
:1017900002900AF101001FFA80FA01E04BF0020BFF
:1017A0000AE000BF00BF0198FFF720FD0020306075
:1017B000012038705046A1E700BF09F10409D9F8AB
:1017C0000040002CBFD10298012808D100203060D1
:1017D0000198FFF70BFD0020387050468EE739481E
:1017E000006890F830004BF08001084335490968E3
:1017F00081F8300000203349096881F8310031490F
:1018000006980968C8854046FFF715FF0198FFF75D
:10181000EDFCFFF7E5FEFFF7E5FC019029480068C5
:1018200090F8310020B101281BD0022818D100E027
:1018300000BF24480068C4693CB110C60020306075
:101840000AF101001FFA80FA09E001201D49096828
:1018500081F8310041461B480068FFF797FE06E01B
:1018600000BF414617480068FFF790FE00BF00BF69
:101870001448006890F8310020B101283FD00228B8
:101880003CD136E02078062824D2DFE800F0231D82
:101890001E032425002001C527E000004100002090
:1018A0007A36000845000020460000204400002051
:1018B0004200002043000020380E00205800002085
:1018C000280000205000002000BFF7480068406A50
:1018D00001C50AE000BF00BF0198FFF787FC0020A8
:1018E000306001203870504608E700BF0020387093
:1018F0000AE0002001C50E20387005E000BF00207E
:1019000001C50A20387000BF00BF0020E649096801
:1019100081F83000E449096881F83100E24909683A
:10192000C861E14909680862DF49096848620198AD
:10193000FFF75CFC5046E1E67CB5002514E0694603
:10194000284601F02EFB064666B9D84850F82540D7
:1019500044B1012C06D0D4E9020100EB810060649F
:101960000198A064681CC5B21F2DE8DD7CBD002471
:1019700002E0142001F0DAFBCD4800780028F8D00E
:10198000CC4800686421B0FBF1F0CA490860084601
:10199000006828B90020C8490870FF2001F043FB07
:1019A00000BFFFF71FFC0446C4480068C449086034
:1019B0000020C24908602046FFF718FCC0480068B4
:1019C000BC490968B0FBF1F0C0F16400BA49087085
:1019D000FFF76CFCFFF7B0FF0A2001F0A7FBE0E780
:1019E00000B587B0032000218022B64BCDE901323B
:1019F000CDE903104FF6FE701E23B34A0090AFF2FC
:101A0000910001F0CBF806AAB0A11E2001F03AFA2D
:101A100007B000BD002400BFFFF7E4FB0446A74861
:101A20000068401CA54908602046FFF7DFFBFFF770
:101A300039FCF1E700B587B0032000218022A74BD5
:101A4000CDE90132CDE903104FF6FF701F23A44A00
:101A50000090AFF23F0001F0A1F806AAA1A11F205B
:101A600001F010FA07B000BD04E0002200F8012BDD
:101A70004A1E91B20029F8DC704730B54FF4A071CE
:101A80009C48FFF7F1FF9B4B03F1200500240AE07F
:101A9000002018705D603F20D87300211974203336
:101AA0002035601C84B2092CF2DB002018705860CD
:101AB0003F20D873002119748E488F49086030BDCB
:101AC00030B54FF4FD618D48FFF7CEFF8021774898
:101AD000FFF7CAFF894B03F15C0500240AE05D6152
:101AE0003F2083F84C0000214D20C1545C335C350D
:101AF000601CC4B2152CF2D3002058613F2083F83B
:101B00004C0000214D20C15400207D4908607B48D5
:101B10007C49086030BD00227B4B1A707B49002055
:101B200004E0002201F8012B421CD0B20428F8DBAB
:101B30000022774B1A70774B1A70774B1A605A4B0A
:101B40001A6070470020754908607549087075492A
:101B500008707549087075490870754908605749DB
:101B60000860574908605349086051490870704738
:101B700010B5FFF789FBFFF7E5FFFFF7CCFFFFF795
:101B80009FFFFFF77AFF00F0C3FEFFF753FFFFF759
:101B900027FFFFF77AFBFFF7E9FB10BD63480078EA
:101BA000012808D15E480078FF2804D25C480078FC
:101BB000401C5B490870704710B500245B480078F2
:101BC000012830D1FFF70EFB044655480078002865
:101BD00004DD53480078401E514908705048007891
:101BE000F0B950480078D8B9FFF7EDFC49480078C3
:101BF00047490978884213D02C484649097850F85B
:101C000021004549086008460068806B401C09684F
:101C1000886347480068401C45490860FFF7FEFAA2
:101C20002046FFF7E3FA10BD10B500243F480078C6
:101C3000012811D1FFF7D6FA04463948007840B997
:101C400038480078FF2804D236480078401C3549CF
:101C500008702046FFF7CAFA10BD10B500243348BB
:101C60000078012869D1FFF7BDFA04462D480078B5
:101C700000285FDD2B480078401E2A49087008467E
:101C8000007860B92648007828B92046FFF7AEFAF8
:101C9000FFF7A6FC51E02046FFF7A8FA4DE02046EA
:101CA000FFF7A4FA49E045E050000020380E00207C
:101CB0004000002038000020340000204C000020AC
:101CC0003C000020380A0020340C002075432F4FC0
:101CD000532D49492053746174000000380C0020D2
:101CE000340E002075432F4F532D49492049646C11
:101CF000650000006C0800202C000020B80E0020B9
:101D00005C00002054000020450000204600002018
:101D10004300002044000020580000206400002000
:101D200041000020420000204B0000204A0000201B
:101D3000280000202046FFF759FA10BD10B5E948E9
:101D4000007890B9FFF73FFCE7480078E749087052
:101D5000E748E549097850F82100E6490860084657
:101D60000068E5490860FFF744FA10BD10B500248B
:101D7000022001F0DBF9FFF735FA04460020DF49C5
:101D800008602046FFF732FA0A2001F0CFF9FFF78A
:101D900029FA0446D9480068D94908600120D94980
:101DA00008702046FFF722FA10BD70B50026FFF735
:101DB000D8FAFFF717FA0646D3480068401CD24904
:101DC00008603046FFF712FAC6480078012853D160
:101DD000CE48007820B1012804D0022809D103E0C0
:101DE00001250BE0002509E001250120C749087005
:101DF00004E001250020C549087000BF00BF05B9F7
:101E000070BDC348046833E0FFF7ECF90646E08D87
:101E100050B3E08D401E80B2E08528BB94F83000BE
:101E200000F0370040B114F8300F20F03700207078
:101E300001206070303C02E0002084F8310094F80A
:101E4000300000F0080078B93434A078B14909783E
:101E50000843B04908702078AF49085C61780843AE
:101E600014F83419AC4A505464693046FFF7BEF98F
:101E700094F832001F28C7D100BFC1E74FF48F701C
:101E80007047704710B590F8342001F10B039B5C4C
:101E900090F83540A34301F10B04A35423469B5C07
:101EA00023B98B7A90F83640A3438B7210BD2DE98D
:101EB000F04F05460F4690469946A87A97490E5C22
:101EC00005F10B00805D11F800B00BEBC60000F0CF
:101ED000FF0A874850F82A40002024346081276098
:101EE000207B20EA0800207384F80D90207B243C9E
:101EF00000F0080068B994F836008649097808436C
:101F0000844908708448805D94F8351008438249FC
:101F1000885529462046FFF7B5FF206A20B12046A4
:101F2000216AFFF733FBE5615046BDE8F08F10B53D
:101F3000714A1268D061704A126892F8343000F128
:101F40000B02D25C6C4B1B6893F835301A436A4B1A
:101F50001B6893F8344000F10B031A55827A664BE4
:101F60001B6893F836301A438272634A126892F8FB
:101F70003410694A525C604B1B6893F835309A43C1
:101F8000654B5A541A46525C42B95B4A126892F841
:101F90003630604A12789A435E4B1A7010BD0023A7
:101FA000837200F10B01002204E0002301F8013BE1
:101FB000531CDAB2042AF8DB704705E011F8013B44
:101FC00000F8013B531E9AB2002AF7DC704702E08A
:101FD00008C908C0521E002AFAD170472DE9F84FEF
:101FE00005460E4617469846DDE90BABDDF828900E
:101FF00000200090FFF7F6F8009049480468002C94
:102000006BD0183454F8040C454908600098FFF769
:10201000EDF844F8186CA576002020766076E08212
:1020200044F814AC44F80C9C44F8107C24F808BC28
:1020300024F8068CE077E810207705F00700E076BA
:10204000217F01208840A077E17E012088406077D1
:1020500000206060A0602061E0602062A062606299
:10206000E06220633F2084F83400183C00214D20BA
:1020700001552046FFF76FF92046FFF707F9FFF7F4
:10208000B1F800901A4840F8254021480068606186
:102090000020A0611E48006810B11D4800688461DE
:1020A0001B4804603434A0781A4909780843194958
:1020B000087020781849085C6178084314F83419CE
:1020C000154A505417480078401C1649087000986B
:1020D000FFF78CF80020BDE8F88F0098FFF786F82E
:1020E0004220F8E74A00002044000020430000207E
:1020F000380E002058000020500000204C00002026
:102100003800002040000020640000206000002013
:102110005C00002045000020460000207A360008C0
:10212000540000204B0000202DE9F05F04460F46CC
:1021300091461E464FF0000B2078052804D0012060
:1021400030700020BDE8F09F09F0800ABAF1000F5E
:1021500004D029F080094FF0010801E04FF0000899
:1021600000203070FFF73EF88346B9F1000F2CD005
:10217000B9F1010F3BD0B9F1020F03D0B9F1030F50
:1021800046D111E0208900EA0705BD4206D1B8F129
:10219000010F05D12089A843208101E07020307013
:1021A0005846FFF723F83AE0208900EA070535B1E1
:1021B000B8F1010F05D12089A843208101E07020EA
:1021C00030705846FFF712F829E0208927EA000509
:1021D000BD4206D1B8F1010F05D1208928432081E5
:1021E00001E0702030705846FFF700F817E02089B2
:1021F00027EA000535B1B8F1010F05D12089284340
:10220000208101E0702030705846FEF7EFFF06E0B5
:102210005846FEF7EBFF00256F20307000BF00BF6F
:1022200028468FE72DE9F04106460D460027F8487D
:102230000078002804DD102028700020BDE8F0811F
:10224000FEF7D0FF0746F348046894B10068406881
:10225000F0490860052020702681002060603F2042
:10226000A0720021E1723846FEF7C0FF00202870FE
:1022700004E03846FEF7BAFF722028702046DDE7FA
:1022800030B501464A6808682AB9CC68606028B150
:102290000025456002E0106000B142608B680025B7
:1022A0009D6230BDF0B506460F46B46800202C3460
:1022B00060802780207920F020002071002060714C
:1022C00020792C3C88B93434A078D3490978084364
:1022D000D14908702078D149085C6178084314F826
:1022E0003419CE4A5054012500E000253046FFF74E
:1022F000C7FF2846F0BD2DE9F0470446894615463C
:102300004FF0000AC2480078002804DD0F20287032
:102310002046BDE8F0872078052803D001202870EA
:102320002046F6E7FEF75EFF8246606808B10127A7
:1023300000E00027B9F1000F03D0B9F1010F40D13F
:102340001BE09FB93F20A0720021E17200202070A5
:10235000B0480068606000202081AE4804605046AC
:10236000FEF744FF00202870002605E05046FEF7E7
:102370003DFF4920287026462AE0D4F8048005E075
:1023800000214046FFF78EFFD8F80080B8F1000F1B
:10239000F6D13F20A0720021E172002020709D48FC
:1023A00000686060002020819A4804605046FEF773
:1023B0001DFF012F01D1FFF713F90020287000261F
:1023C00006E05046FEF712FF07202870264600BFA1
:1023D00000BF30469DE72DE9F04105460E46144604
:1023E00000278B480078002804DD11202070002091
:1023F000BDE8F081FEF7F6FE07462878052806D0EE
:102400003846FEF7F3FE012020700020F0E705F1CA
:102410000A013046FFF734F880463846FEF7E6FEFC
:10242000002020704046E3E72DE9F04105460F46C5
:1024300014464FF0000876480078002803DD12208B
:102440002070BDE8F081FEF7CDFE80462878052893
:1024500005D04046FEF7CAFE01202070F1E738465D
:10246000FFF74EF806460F2E05DD4046FEF7BEFE8E
:1024700073202070E5E7394605F10A00FFF700F800
:102480004046FEF7B3FE0020207000BFD9E7F0B54C
:102490001446059E624F3F6897F8307047F020075A
:1024A000DFF87CC1DCF800C08CF830700027DFF862
:1024B00070C1DCF800C08CF83170594F3F68FE8560
:1024C000574F3F68B9620C828B74554F3F688F60DD
:1024D00047680F6000274F60C860456805B16960B4
:1024E00041604F4F3F6897F834204C4FBF5CDFF896
:1024F00030C1DCF800C09CF835C027EA0C07DFF8D3
:102500001CC10CF802706746BF5C5FB9444F3F685E
:1025100097F836C0404F3F7827EA0C07DFF8F8C03D
:102520008CF80070F0BD2DE9F04F89B005460F46DC
:1025300091469A46129E0020029035480078002865
:1025400005DD02203070002009B0BDE8F08F35486D
:102550000078002803DD0D2030700020F4E7287893
:10256000052803D0012030700020EDE709F0800B32
:10257000BBF1000F04D029F080094FF0010801E001
:102580004FF00008FEF72EFE0290B9F1000F57D071
:10259000B9F1010F77D0B9F1020F03D0B9F1030FF0
:1025A00070D120E0288900EA0704BC420FD1B8F1BD
:1025B000010F02D12889A043288119480068848529
:1025C0000298FEF713FE002030702046BCE74B4611
:1025D0003A4604A92846CDF800A0FFF758FF029814
:1025E000FEF704FE77E0288900EA0704E4B1B8F1B9
:1025F000010F02D12889A0432881094800688485F9
:102600000298FEF7F3FD0020307020469CE70000A2
:10261000410000203000002045000020460000203E
:1026200050000020420000204B463A4604A92846AC
:10263000CDF800A0FFF72BFF0298FEF7D7FD4AE088
:10264000288927EA0004BC420FD1B8F1010F02D15A
:10265000288920432881BF48006884850298FEF7B6
:10266000C5FD0020307020466EE74B463A4604A96F
:102670002846CDF800A0FFF70AFF0298FEF7B6FD46
:1026800029E000E01FE0288927EA00047CB1B8F1C6
:10269000010F02D1288920432881AE480068848533
:1026A0000298FEF7A3FD0020307020464CE74B4611
:1026B0003A4604A92846CDF800A0FFF7E8FE0298A4
:1026C000FEF794FD07E00298FEF790FD00246F20CE
:1026D0003070204638E700BFFEF782FFFEF782FD2C
:1026E00002909C48006890F8310020B39948006837
:1026F00090F83100039000209649096881F8310074
:1027000004A8FFF7BDFD00209249096881F8300058
:102710000298FEF76BFD00240398012805D00228DB
:1027200002D10E20307003E000BF0A20307000BFDD
:1027300000BF204608E787480068848DB8F1010F84
:102740001ED1B9F1000F0ED0B9F1010F0CD0B9F1C3
:10275000020F03D0B9F1030F0AD100E000BF2889AE
:10276000A04328810BE000BF28892043288106E090
:102770000298FEF73BFD6F2030700020E4E600BFBA
:102780000298FEF733FD002030702046DCE670B57D
:102790000025FEF727FD05466E480068848D284613
:1027A000FEF724FD204670BD2DE9FC5F04468946F6
:1027B00092461E46002000902078052804D0012073
:1027C00030700020BDE8FC9FFEF70CFD0090BAF1D0
:1027D000000F03D0BAF1010F0AD104E0208920EAEA
:1027E000090020810BE0208940EA0900208106E0F1
:1027F0000098FEF7FBFC712030700020E2E700BF7C
:102800004FF0000B656855E0A87C40B3012838D034
:10281000022802D0032844D111E02089298A00EA45
:102820000107288AB84209D139462846FFF73AFD00
:102830008046B8F1010F01D14FF0010B38E020893B
:10284000298A00EA01074FB139462846FFF72AFDD9
:102850008046B8F1010F01D14FF0010B28E0288A22
:10286000218920EA0107288AB84209D13946284639
:10287000FFF718FD8046B8F1010F01D14FF0010BB1
:1028800016E0288A218920EA01074FB139462846F7
:10289000FFF708FD8046B8F1010F01D14FF0010BA1
:1028A00006E00098FEF7A2FC6F203070002089E758
:1028B00000BF2D68002DA7D10098FEF797FCBBF153
:1028C000010F01D1FEF78CFEFEF78CFC00902089F1
:1028D00001900098FEF78AFC00203070019871E7A3
:1028E0002DE9F04104460D4600272078052804D044
:1028F000012028700020BDE8F081FEF773FC074638
:1029000026893846FEF772FC002028703046F2E730
:1029100070B58C211048FFF7A7F80F4C04F11C0686
:1029200000250AE00020207066603F20A072002190
:10293000E1721C341C36681C85B2042DF2DB0020C9
:10294000207060603F20A0720021E17202480349BC
:10295000086070BD50000020AC090020300000204D
:102960002DE9F34F85B0884600200190FEF73AFC30
:102970000190F74850F8280030B10198FEF736FC76
:10298000282007B0BDE8F08F0598FF2804D1F14852
:10299000006890F832000590ED49059851F82050F4
:1029A00025B90198FEF722FC2920EAE7012D04D180
:1029B0000198FEF71BFC4320E3E74FEAE80708F025
:1029C000070003900120B84000F0FF09012103989F
:1029D000814001F0FF0A0021DD4A059842F82010ED
:1029E000104640F8285095F8346095F8360002906B
:1029F00095F835B0D848805D00EA0B00D0B1D648D4
:102A0000805D20EA0B00D44988550846805D28B9CE
:102A1000D248007802998843D0490870CF4800789E
:102A200040EA0900CD490870CB48C05D40EA0A0081
:102A3000C949C855EC69D4B104F10B00805D20EAA6
:102A40000B0004F10B0188550846805D18B9A07A87
:102A500002998843A072A07A40EA0900A07204F1AA
:102A60000B00C05D40EA0A0004F10B01C855286A5A
:102A700030B3286A0490049804681FE004F10B0046
:102A8000805D20EA0B0004F10B0188550846805D4B
:102A900018B9A07A02998843A072A07A40EA090086
:102AA000A07204F10B00C05D40EA0A0004F10B01C2
:102AB000C8550498001D049004980468002CDDD1CA
:102AC00085F8328085F83470039885F8330085F8EE
:102AD000369085F835A00198FEF788FBA04800786D
:102AE000012801D1FEF77CFD00204AE72DE9FE4FC9
:102AF00006460F4690461C464FF00009FEF772FB53
:102B0000814698480078002805DD4846FEF76EFBB0
:102B10003C20BDE8FE8F8E4850F8240060BB0120A9
:102B20008B4941F824004846FEF760FB00234246EB
:102B300039463046FEF7BEFB8246002000900190E9
:102B400003460246514602902046FFF747FA0546E3
:102B500035B98348007801280CD1FEF741FD09E022
:102B6000FEF740FB81460020794941F824004846A1
:102B7000FEF73CFB2846CCE74846FEF737FB28200B
:102B8000C7E702F0010343B102F002032BB102E0F8
:102B9000491E002308C00029FAD170472DE9F04FE3
:102BA00085B081468A4693461C46DDE90F78129D22
:102BB00000200390FEF716FB03906A480078002877
:102BC00006DD0398FEF712FB3C2005B0BDE8F08F50
:102BD0005F4850F8240088BB01205D4941F824007B
:102BE0000398FEF703FB2A4641463846FFF7C9FF24
:102BF0002B465A4651464846FEF75CFB0490119816
:102C0000CDE9008002953A4620460E9B0499FFF7D5
:102C1000E5F9064636B95248007801280CD1FEF78E
:102C2000DFFC09E0FEF7DEFA03900020484941F896
:102C300024000398FEF7DAFA3046C6E7FFE7039868
:102C4000FEF7D4FA2820C0E72DE9F0410546002719
:102C500044480078002802DD4020BDE8F0811F2DA7
:102C600001D13E20F9E7FEF7BDFA0746FF2D03D15B
:102C70003848006890F83250354850F8254024B95B
:102C80003846FEF7B3FA4320E7E7012C04D1384673
:102C9000FEF7ACFA3D20E0E714F8340F2E49085C4B
:102CA0006178884321782C4A505414F8340911462D
:102CB000085C30B994F836102848007888432749D2
:102CC0000870E06918B12046E169FFF7DBF8206A77
:102CD00018B12046216AFEF759FCA66A16B13046A3
:102CE000FFF7CEFA0020E08584F8300084F8310048
:102CF0001D480078FF2804D21B480078401C1A4960
:102D000008703846FEF772FAFFF7BBF8FEF76AFA6A
:102D1000074615480078002804DD13480078401E57
:102D2000114908702046FEF7B7FA10480078401E97
:102D30000E4908700020064941F82500A069C8B96D
:102D40000020616988610A496069086018E0000034
:102D5000380E0020500000204600002045000020D2
:102D60004A00002041000020420000204B000020CB
:102D70005C000020D4E905014861D4E905108861B0
:102D8000E34800686061E24804603F2084F84C003A
:102D900000214D2001553846FEF728FADD4800781D
:102DA000012801D1FEF71CFC002056E72DE9F04177
:102DB000044600271F2C02D13E20BDE8F081FF2CE5
:102DC0000BD1FEF70FFA0746D348006890F837603A
:102DD0003846FEF70BFA3046EFE7FEF703FA0746F0
:102DE000CE4850F8245025B93846FEF7FFF9432065
:102DF000E3E7012D04D13846FEF7F8F93D20DCE782
:102E00003F2085F837003846FEF7F0F90020D4E778
:102E10002DE9F04706460F4614464FF00008C0481B
:102E20000078002804DD112020700020BDE8F08724
:102E3000FEF7D8F98046FF2E03D1B748006890F816
:102E40003260B64850F8265035B94046FEF7CEF904
:102E5000432020700020E9E7012D06D14046FEF70F
:102E6000C5F9432020700020E0E705F14C01384609
:102E7000FEF706FB81464046FEF7B8F900202070B9
:102E80004846D3E72DE9F0470646884614464FF0FA
:102E90000009A3480078002803DD12202070BDE857
:102EA000F087FEF79FF98146FF2E03D19A4800680C
:102EB00090F83260994850F826502DB94846FEF7F0
:102EC00095F943202070EAE7012D05D14846FEF729
:102ED0008DF943202070E2E74046FEF711FB0746DC
:102EE0000F2F05DD4846FEF781F941202070D6E717
:102EF000414605F14C00FEF7C3FA4846FEF776F965
:102F00000020207000BFCAE770B505460026FEF716
:102F100069F90646814850F8254024B93046FEF745
:102F200065F9462070BD012C04D13046FEF75EF9EC
:102F30004320F7E794F8300000F0080060B314F87D
:102F4000300F20F00800207014F83009F8B9E08D37
:102F5000C8B93434A07873490978084371490870B6
:102F600020787149085C6178084314F834196E4A76
:102F700050543046FEF73AF966480078012809D1E6
:102F8000FEF72EFB06E03046FEF730F902E0304651
:102F9000FEF72CF90020C5E73046FEF727F944205C
:102FA000C0E72DE9F04707460D464FF0000A002024
:102FB00028606860FEF716F98246FF2F03D1564855
:102FC000006890F83270554850F827402CB95046A8
:102FD000FEF70CF94320BDE8F087012C04D15046E0
:102FE000FEF704F94320F6E7207C00F0010020B949
:102FF0005046FEF7FBF84520EDE70026D4F80C908C
:10300000D4F808805046FEF7F1F800E0761C58F836
:10301000041B0029FAD0B0002860A9EB060080004C
:1030200068600020D7E72DE9F04105464FF0000821
:10303000FEF7D8F88046FF2D05D13748006890F894
:103040003250012608E03448006890F83200A84267
:1030500001D1012600E00026304850F825402CB967
:103060004046FEF7C3F84820BDE8F081012C04D1AA
:103070004046FEF7BBF84320F6E794F834702A4840
:10308000C05D94F8351088432749C8550846C05D8F
:1030900030B994F8361023480078884321490870E5
:1030A00094F8300040F0080084F830004046FEF705
:1030B0009DF8012E01D1FEF793FA0020D4E72DE907
:1030C000F04105460E460027FEF78CF80746FF2D17
:1030D00003D11148006890F83250104850F825404C
:1030E0002CB93846FEF782F82920BDE8F081012C82
:1030F00004D13846FEF77AF84320F6E75C222146F1
:103100003046FEF75AFF3846FEF770F80020ECE72D
:10311000540000204A00002050000020380E0020FB
:1031200041000020450000204600002070B5054603
:10313000002668480078002800DD70BD002D23DDE2
:10314000FEF750F806466448006890F8344063483B
:10315000005D6149096891F8351088435F49085559
:103160000846005D40B95C48006890F836105C483D
:10317000007888435A49087057480068C58530462A
:10318000FEF734F8FEF72CFA00BFD6E72DE9F0473A
:1031900006460F46904699464E480078002802DDC4
:1031A0005520BDE8F08709F10500642148434FF43C
:1031B0007A71B0FBF1F14FF461607043C7EB071215
:1031C00000EB8200404400EBC00202EB001001EB78
:1031D0008004250CA4B22046FFF7A8FF09E04FF4B5
:1031E0000040FFF7A3FF4FF40040FFF79FFF681E6A
:1031F00085B2002DF3DC0020D3E770B5054600262C
:103200001F2D01DB2A2070BDFDF7ECFF0646354877
:1032100050F8254024B93046FDF7E8FF4320F2E797
:10322000012C04D13046FDF7E1FF4320EBE7E08DB0
:1032300020B93046FDF7DAFF5020E4E70020E085B2
:1032400094F8300000F0370040B114F8300F20F04F
:103250003700207001206070303C02E0002084F8CC
:10326000310094F8300000F00800A8B93434A07898
:103270001B49097808431A49087020781749085CE7
:103280006178084314F83419144A50543046FDF755
:10329000ADFFFEF7A5F902E03046FDF7A7FF0020DD
:1032A000B1E770B50025FDF79DFF05460E4804689F
:1032B0002846FDF79BFF204670BD70B504460025EB
:1032C000FDF790FF0546084804602846FDF78EFF8D
:1032D00070BD00004100002050000020460000208A
:1032E00045000020380E00206400002010B50028A2
:1032F00007DA0A07140EB34A00F00F031B1FD45459
:1033000003E00A07130EB04A135410BD70B504460B
:103310000D46D5B124B90121AC48FDF7F4FB2EE0F0
:10332000012C04D10221A948FDF7EDFB27E0022C76
:1033300004D10421A548FDF7E6FB20E0032C1ED1B3
:103340000821A248FDF7DFFB19E024B901219F48BD
:10335000FDF7DBFB13E0012C04D102219B48FDF7B4
:10336000D4FB0CE0022C04D104219848FDF7CDFBDE
:1033700005E0032C03D108219448FDF7C6FB70BD7E
:1033800008B54FF4C060FCF759FF14208DF8000019
:1033900000208DF8010002208DF8020001208DF838
:1033A00003006846FCF74FFF17208DF8000000204F
:1033B0008DF801008DF8020001208DF803006846A9
:1033C000FCF741FF28208DF8000000208DF8010057
:1033D00001208DF802008DF803006846FCF733FFEA
:1033E0001D208DF8000000208DF8010003208DF8CD
:1033F000020001208DF803006846FCF724FF1B2023
:103400008DF8000000208DF8010004208DF80200E6
:1034100001208DF803006846FCF715FF23208DF886
:10342000000000208DF8010005208DF80200012029
:103430008DF803006846FCF706FF4FF4A060FCF728
:10344000FDFE0021481EFFF751FF08BDF8B50746F5
:103450000C4615461E46ADF800408DF802508DF81A
:10346000036069463846FDF7A1FAF8BD10B5102390
:10347000032201215548FFF7E9FF1023032202210F
:103480005248FFF7E3FF1023032204214F48FFF7C0
:10349000DDFF1023032208214C48FFF7D7FF10BDA2
:1034A00030B585B06846FDF7D0FC64210198B0FBCB
:1034B000F1F50420FCF711FF2C46B4F1807F00D316
:1034C00011E024F07F40401E4FF0E02148610F21C1
:1034D0004FF0FF30FFF70AFF00204FF0E021886136
:1034E0000720086100BF05B030BD10B5FDF7ACFB8B
:1034F0004FF48030FDF7C8FBFDF705FC3449087038
:103500000846007801282BD11020FCF719FF022073
:10351000FCF702FF0020FDF73CFC0020FDF74BFC10
:103520004FF48060FDF73EFC4FF4E0114FF4803023
:10353000FDF712FC0120FDF71BFC00BF3920FDF751
:10354000C6FB0028FAD00220FDF715FC00BFFDF7EE
:103550001BFC0828FBD101211420FDF7E3FC01E04E
:1035600000BFFEE710BD10B5FFF7BFFFFFF798FFE4
:10357000FFF77CFFFFF704FF002405E00121204650
:10358000FFF7C4FE601CC4B2042CF7DB10BD00BF03
:103590001049098801F080010029F9D0C0F3080121
:1035A0000C4A121D1180704700BF0A48008800F0C5
:1035B00020000028F9D00748001D0088C0F308004B
:1035C0007047000018ED00E000E400E0001001404A
:1035D0006800002000480040064C074D06E0E06807
:1035E00040F0010394E8070098471034AC42F6D34A
:1035F000FCF780FD7C3700089C37000802E008C813
:10360000121F08C1002AFAD170477047002001E05C
:1036100001C1121F002AFBD1704700000100000009
:10362000785634120A001000010020004001010009
:103630001C0014000200050010001F000100000023
:10364000050010000000000000000400000004005D
:1036500000000400010004000100010001008000DE
:103660000100160010000100800001000100200090
:103670005C00640001001E016E0E000001000200EB
:10368000010003000100020001000400010002002B
:10369000010003000100020001000500010002001A
:1036A000010003000100020001000400010002000B
:1036B00001000300010002000100060001000200F9
:1036C00001000300010002000100040001000200EB
:1036D00001000300010002000100050001000200DA
:1036E00001000300010002000100040001000200CB
:1036F00001000300010002000100070001000200B8
:1037000001000300010002000100040001000200AA
:103710000100030001000200010005000100020099
:10372000010003000100020001000400010002008A
:103730000100030001000200010006000100020078
:10374000010003000100020001000400010002006A
:103750000100030001000200010005000100020059
:10376000010003000100020001000400010002004A
:103770000100030001000200010000009C37000866
:10378000000000206C000000FC350008083800082C
:103790006C000020341A00000C3600080000000005
:1037A00001020304010203040607080902040608D3
:1037B00000A24A040000000000000000010203040F
:1037C00006070809000000000000000000000000DB
:1037D00000000000000000000000000000000000E9
:1037E00000000000000000000000000000000000D9
:1037F00000000000000000000000000000000000C9
:083800000000000001000000BF
:04000005080000ED02
:00000001FF
